{
  "address": "0xef9c5734e8C970450507D3325EbBEccf70D84548",
  "abi": [
    {
      "inputs": [
        {
          "internalType": "contract IReward",
          "name": "rewardAddress",
          "type": "address"
        },
        {
          "components": [
            {
              "internalType": "uint256",
              "name": "rewardRateMillionth",
              "type": "uint256"
            },
            {
              "internalType": "uint256",
              "name": "fixedRewardRateThousandsMillionth",
              "type": "uint256"
            }
          ],
          "internalType": "struct RewardsGenerator.Config",
          "name": "config",
          "type": "tuple"
        },
        {
          "internalType": "address[]",
          "name": "initialGames",
          "type": "address[]"
        },
        {
          "components": [
            {
              "internalType": "address",
              "name": "account",
              "type": "address"
            },
            {
              "internalType": "uint256",
              "name": "amount",
              "type": "uint256"
            }
          ],
          "internalType": "struct RewardsGenerator.InitialAccount[]",
          "name": "initialAccounts",
          "type": "tuple[]"
        }
      ],
      "stateMutability": "nonpayable",
      "type": "constructor"
    },
    {
      "anonymous": false,
      "inputs": [
        {
          "indexed": true,
          "internalType": "address",
          "name": "owner",
          "type": "address"
        },
        {
          "indexed": true,
          "internalType": "address",
          "name": "spender",
          "type": "address"
        },
        {
          "indexed": false,
          "internalType": "uint256",
          "name": "value",
          "type": "uint256"
        }
      ],
      "name": "Approval",
      "type": "event"
    },
    {
      "anonymous": false,
      "inputs": [
        {
          "indexed": true,
          "internalType": "address",
          "name": "game",
          "type": "address"
        },
        {
          "indexed": false,
          "internalType": "uint256",
          "name": "weight",
          "type": "uint256"
        },
        {
          "indexed": false,
          "internalType": "uint256",
          "name": "timestamp",
          "type": "uint256"
        }
      ],
      "name": "GameEnabled",
      "type": "event"
    },
    {
      "anonymous": false,
      "inputs": [
        {
          "indexed": true,
          "internalType": "address",
          "name": "from",
          "type": "address"
        },
        {
          "indexed": true,
          "internalType": "address",
          "name": "to",
          "type": "address"
        },
        {
          "indexed": false,
          "internalType": "uint256",
          "name": "value",
          "type": "uint256"
        }
      ],
      "name": "Transfer",
      "type": "event"
    },
    {
      "inputs": [
        {
          "internalType": "address",
          "name": "account",
          "type": "address"
        },
        {
          "internalType": "uint256",
          "name": "amount",
          "type": "uint256"
        }
      ],
      "name": "add",
      "outputs": [],
      "stateMutability": "nonpayable",
      "type": "function"
    },
    {
      "inputs": [
        {
          "internalType": "address",
          "name": "",
          "type": "address"
        },
        {
          "internalType": "address",
          "name": "",
          "type": "address"
        }
      ],
      "name": "allowance",
      "outputs": [
        {
          "internalType": "uint256",
          "name": "",
          "type": "uint256"
        }
      ],
      "stateMutability": "pure",
      "type": "function"
    },
    {
      "inputs": [
        {
          "internalType": "address",
          "name": "",
          "type": "address"
        },
        {
          "internalType": "uint256",
          "name": "",
          "type": "uint256"
        }
      ],
      "name": "approve",
      "outputs": [
        {
          "internalType": "bool",
          "name": "",
          "type": "bool"
        }
      ],
      "stateMutability": "nonpayable",
      "type": "function"
    },
    {
      "inputs": [
        {
          "internalType": "address",
          "name": "owner",
          "type": "address"
        }
      ],
      "name": "balanceOf",
      "outputs": [
        {
          "internalType": "uint256",
          "name": "",
          "type": "uint256"
        }
      ],
      "stateMutability": "view",
      "type": "function"
    },
    {
      "inputs": [
        {
          "internalType": "address",
          "name": "to",
          "type": "address"
        }
      ],
      "name": "claimFixedRewards",
      "outputs": [],
      "stateMutability": "nonpayable",
      "type": "function"
    },
    {
      "inputs": [
        {
          "internalType": "address",
          "name": "to",
          "type": "address"
        }
      ],
      "name": "claimSharedPoolRewards",
      "outputs": [],
      "stateMutability": "nonpayable",
      "type": "function"
    },
    {
      "inputs": [],
      "name": "decimals",
      "outputs": [
        {
          "internalType": "uint8",
          "name": "",
          "type": "uint8"
        }
      ],
      "stateMutability": "pure",
      "type": "function"
    },
    {
      "inputs": [
        {
          "internalType": "address",
          "name": "account",
          "type": "address"
        }
      ],
      "name": "earnedFromFixedRate",
      "outputs": [
        {
          "internalType": "uint256",
          "name": "",
          "type": "uint256"
        }
      ],
      "stateMutability": "view",
      "type": "function"
    },
    {
      "inputs": [
        {
          "internalType": "address",
          "name": "account",
          "type": "address"
        }
      ],
      "name": "earnedFromPoolRate",
      "outputs": [
        {
          "internalType": "uint256",
          "name": "",
          "type": "uint256"
        }
      ],
      "stateMutability": "view",
      "type": "function"
    },
    {
      "inputs": [
        {
          "internalType": "address",
          "name": "game",
          "type": "address"
        },
        {
          "internalType": "uint256",
          "name": "weight",
          "type": "uint256"
        }
      ],
      "name": "enableGame",
      "outputs": [],
      "stateMutability": "nonpayable",
      "type": "function"
    },
    {
      "inputs": [],
      "name": "getTotalRewardPerPointWithPrecision24",
      "outputs": [
        {
          "internalType": "uint256",
          "name": "",
          "type": "uint256"
        }
      ],
      "stateMutability": "view",
      "type": "function"
    },
    {
      "inputs": [
        {
          "internalType": "address",
          "name": "from",
          "type": "address"
        },
        {
          "internalType": "address",
          "name": "to",
          "type": "address"
        },
        {
          "internalType": "uint256",
          "name": "amount",
          "type": "uint256"
        }
      ],
      "name": "move",
      "outputs": [],
      "stateMutability": "nonpayable",
      "type": "function"
    },
    {
      "inputs": [],
      "name": "name",
      "outputs": [
        {
          "internalType": "string",
          "name": "",
          "type": "string"
        }
      ],
      "stateMutability": "pure",
      "type": "function"
    },
    {
      "inputs": [
        {
          "internalType": "contract IReward",
          "name": "",
          "type": "address"
        },
        {
          "components": [
            {
              "internalType": "uint256",
              "name": "rewardRateMillionth",
              "type": "uint256"
            },
            {
              "internalType": "uint256",
              "name": "fixedRewardRateThousandsMillionth",
              "type": "uint256"
            }
          ],
          "internalType": "struct RewardsGenerator.Config",
          "name": "",
          "type": "tuple"
        },
        {
          "internalType": "address[]",
          "name": "initialGames",
          "type": "address[]"
        },
        {
          "components": [
            {
              "internalType": "address",
              "name": "account",
              "type": "address"
            },
            {
              "internalType": "uint256",
              "name": "amount",
              "type": "uint256"
            }
          ],
          "internalType": "struct RewardsGenerator.InitialAccount[]",
          "name": "initialAccounts",
          "type": "tuple[]"
        }
      ],
      "name": "postUpgrade",
      "outputs": [],
      "stateMutability": "nonpayable",
      "type": "function"
    },
    {
      "inputs": [
        {
          "internalType": "address",
          "name": "account",
          "type": "address"
        },
        {
          "internalType": "uint256",
          "name": "amount",
          "type": "uint256"
        }
      ],
      "name": "remove",
      "outputs": [],
      "stateMutability": "nonpayable",
      "type": "function"
    },
    {
      "inputs": [],
      "name": "reward",
      "outputs": [
        {
          "internalType": "contract IReward",
          "name": "",
          "type": "address"
        }
      ],
      "stateMutability": "view",
      "type": "function"
    },
    {
      "inputs": [],
      "name": "symbol",
      "outputs": [
        {
          "internalType": "string",
          "name": "",
          "type": "string"
        }
      ],
      "stateMutability": "view",
      "type": "function"
    },
    {
      "inputs": [],
      "name": "totalSupply",
      "outputs": [
        {
          "internalType": "uint256",
          "name": "",
          "type": "uint256"
        }
      ],
      "stateMutability": "view",
      "type": "function"
    },
    {
      "inputs": [
        {
          "internalType": "address",
          "name": "",
          "type": "address"
        },
        {
          "internalType": "uint256",
          "name": "",
          "type": "uint256"
        }
      ],
      "name": "transfer",
      "outputs": [
        {
          "internalType": "bool",
          "name": "",
          "type": "bool"
        }
      ],
      "stateMutability": "nonpayable",
      "type": "function"
    },
    {
      "inputs": [
        {
          "internalType": "address",
          "name": "",
          "type": "address"
        },
        {
          "internalType": "address",
          "name": "",
          "type": "address"
        },
        {
          "internalType": "uint256",
          "name": "",
          "type": "uint256"
        }
      ],
      "name": "transferFrom",
      "outputs": [
        {
          "internalType": "bool",
          "name": "",
          "type": "bool"
        }
      ],
      "stateMutability": "nonpayable",
      "type": "function"
    }
  ],
  "transactionHash": "0x7ce4144169d3d50c47be800df875f54d16d3148e762ee2dd2bfc16a4ffbaee67",
  "args": [
    "0x58442c8204a0B72A7c152056E319b648f005b2bf",
    {
      "rewardRateMillionth": 100,
      "fixedRewardRateThousandsMillionth": 10
    },
    [
      "0x7ed5118E042F22DA546C9aaA9540D515A6F776E9"
    ],
    [
      {
        "account": "0x8888888884d2e4E981023dA51B43066461F46Dca",
        "amount": "2600000000000000000"
      },
      {
        "account": "0x1ffb5056730672AB48597Ce24371Feb0eC88a2b8",
        "amount": "2900000000000000000"
      },
      {
        "account": "0x7fCe02BB66c0D9396fb9bC60a80d45462E60fdfF",
        "amount": "6200000000000000000"
      },
      {
        "account": "0x283aFaad5c345680144f20F3910EA95e5F0bA932",
        "amount": "14800000000000000000"
      }
    ]
  ],
  "numDeployments": 2,
  "solcInputHash": "a9723b8fddec02be6c33eab701f32e11",
  "bytecode": "0x60e06040523480156200001157600080fd5b506040516200237638038062002376833981016040819052620000349162000721565b6001600160a01b03841660c0528251608052602083015160a0526200005c8484848462000066565b505050506200092f565b600062000080600080516020620023568339815191525490565b90506001600160a01b038116620000b0576001600160a01b036000805160206200235683398151915255620000c6565b336001600160a01b03821614620000c657600080fd5b60045460ff16620001ad5760005b8351811015620001295762000114848281518110620000f757620000f76200083d565b6020026020010151670de0b6b3a7640000620001b460201b60201c565b80620001208162000869565b915050620000d4565b5060005b82518110156200019e57620001898382815181106200015057620001506200083d565b6020026020010151600001518483815181106200017157620001716200083d565b6020026020010151602001516200021760201b60201c565b80620001958162000869565b9150506200012d565b506004805460ff191660011790555b5050505050565b6001600160a01b03821660008181526003602052604090819020839055517f50b08f8489c009db3c1b3f160cc0dae1c0c6706774750c001e4c083f9483d5f3906200020b9084904290918252602082015260400190565b60405180910390a25050565b8062000221575050565b6000806200022f84620002d1565b600080546001600160701b038785018116600160901b026001600160901b039092169190911782556001600160a01b0388168083526001602052604080842080548a87019094166001600160701b031990941693909317909255905193955091935090917fddf252ad1be2c89b69c2b068fc378daa952ba7f163c4a11628f55a4df523b3ef90620002c39087815260200190565b60405180910390a350505050565b6000808080620002e062000300565b90925090506000620002f3868362000390565b9296929550919350505050565b600080546080516001600160701b03600160901b83041692918291620003309185919064ffffffffff1662000519565b600054909150620003559082906501000000000090046001600160681b031662000887565b600080546001600160901b031916650100000000006001600160681b0384160264ffffffffff1916174264ffffffffff161790559293915050565b6001600160a01b038216600090815260016020819052604090912080549101546001600160701b0380831692620003de92600160701b9091046001600160681b031691849186911662000571565b6001600160a01b038416600090815260016020818152604080842092830180546001600160701b0319166001600160701b0396909616959095179094558154600160701b600160d81b031916600160701b6001600160681b03881681029190911790925560a0516002909152928220549192633b9aca0092909185916200046f91900464ffffffffff1642620008a2565b6200047b9190620008bc565b620004879190620008bc565b620004939190620008de565b6001600160a01b0385166000908152600260205260408120805464ffffffffff4216600160701b0264ffffffffff60701b198216811783559394508493919291620004ee9185916001600160701b0390811691161762000901565b92506101000a8154816001600160701b0302191690836001600160701b031602179055505092915050565b6000836200052a575060006200056a565b8369d3c21bcecceda100000084620005438542620008a2565b6200054f9190620008bc565b6200055b9190620008bc565b620005679190620008de565b90505b9392505050565b600069d3c21bcecceda100000064e8d4a51000620005908786620008a2565b6200059c9087620008bc565b620005a89190620008bc565b620005b49190620008de565b620005c0908362000887565b95945050505050565b6001600160a01b0381168114620005df57600080fd5b50565b634e487b7160e01b600052604160045260246000fd5b604080519081016001600160401b03811182821017156200061d576200061d620005e2565b60405290565b604051601f8201601f191681016001600160401b03811182821017156200064e576200064e620005e2565b604052919050565b60006001600160401b03821115620006725762000672620005e2565b5060051b60200190565b600082601f8301126200068e57600080fd5b81516020620006a7620006a18362000656565b62000623565b82815260069290921b84018101918181019086841115620006c757600080fd5b8286015b84811015620007165760408189031215620006e65760008081fd5b620006f0620005f8565b8151620006fd81620005c9565b81528185015185820152835291830191604001620006cb565b509695505050505050565b60008060008084860360a08112156200073957600080fd5b85516200074681620005c9565b945060206040601f19830112156200075d57600080fd5b62000767620005f8565b878201518152604088015182820152606088015190955091506001600160401b03808311156200079657600080fd5b828801925088601f840112620007ab57600080fd5b8251620007bc620006a18262000656565b81815260059190911b8401830190838101908b831115620007dc57600080fd5b948401945b8286101562000807578551620007f781620005c9565b82529484019490840190620007e1565b60808b015190975094505050808311156200082157600080fd5b505062000831878288016200067c565b91505092959194509250565b634e487b7160e01b600052603260045260246000fd5b634e487b7160e01b600052601160045260246000fd5b600060001982141562000880576200088062000853565b5060010190565b600082198211156200089d576200089d62000853565b500190565b600082821015620008b757620008b762000853565b500390565b6000816000190483118215151615620008d957620008d962000853565b500290565b600082620008fc57634e487b7160e01b600052601260045260246000fd5b500490565b60006001600160701b0382811684821680830382111562000926576200092662000853565b01949350505050565b60805160a05160c0516119d46200098260003960008181610257015281816104a00152610d76015260008181610883015261132f0152600081816107f201528181610a40015261110301526119d46000f3fe608060405234801561001057600080fd5b506004361061016c5760003560e01c806370a08231116100cd578063b061963c11610081578063dd62ed3e11610066578063dd62ed3e14610391578063f5d82b6b146103a7578063ff1e03e9146103ba57600080fd5b8063b061963c1461036b578063bb35783b1461037e57600080fd5b8063a8671f6a116100b2578063a8671f6a14610345578063a9059cbb146101d1578063abe7f1ab1461035857600080fd5b806370a08231146102c357806395d89b411461030957600080fd5b80631eadd9b41161012457806323b872dd1161010957806323b872dd1461029e578063313ce567146102ac57806348483382146102bb57600080fd5b80631eadd9b41461023f578063228cb7331461025257600080fd5b8063095ea7b311610155578063095ea7b3146101d157806316cf09f8146101f457806318160ddd1461020757600080fd5b8063066112f91461017157806306fdde0314610186575b600080fd5b61018461017f36600461146f565b6103cd565b005b60408051808201909152601481527f436f6e7175657374277320506f696e747320763000000000000000000000000060208201525b6040516101c8919061148c565b60405180910390f35b6101e46101df3660046114ff565b610504565b60405190151581526020016101c8565b6101846102023660046114ff565b61056e565b600054720100000000000000000000000000000000000090046dffffffffffffffffffffffffffff165b6040519081526020016101c8565b61018461024d36600461168e565b610632565b6102797f000000000000000000000000000000000000000000000000000000000000000081565b60405173ffffffffffffffffffffffffffffffffffffffff90911681526020016101c8565b6101e46101df3660046117b4565b604051601281526020016101c8565b6102316107c1565b6102316102d136600461146f565b73ffffffffffffffffffffffffffffffffffffffff166000908152600160205260409020546dffffffffffffffffffffffffffff1690565b6101bb6040518060400160405280600581526020017f504f494e5400000000000000000000000000000000000000000000000000000081525081565b61023161035336600461146f565b610848565b6101846103663660046114ff565b61093f565b61023161037936600461146f565b6109bf565b61018461038c3660046117b4565b610ad6565b61023161039f3660046117f5565b600092915050565b6101846103b53660046114ff565b610b60565b6101846103c836600461146f565b610be0565b3360006103d982610848565b905080156104ff5773ffffffffffffffffffffffffffffffffffffffff8281166000908152600260205260409081902080547fffffffffffffffffffffffffff00000000000000000000000000000000000000166e0100000000000000000000000000004264ffffffffff16027fffffffffffffffffffffffffffffffffffff000000000000000000000000000016179055517f21670f220000000000000000000000000000000000000000000000000000000081528482166004820152602481018390527f0000000000000000000000000000000000000000000000000000000000000000909116906321670f2290604401600060405180830381600087803b1580156104e657600080fd5b505af11580156104fa573d6000803e3d6000fd5b505050505b505050565b6040517f08c379a000000000000000000000000000000000000000000000000000000000815260206004820152601060248201527f4e4f4e5f5452414e5346455241424c450000000000000000000000000000000060448201526000906064015b60405180910390fd5b7fb53127684a568b3173ae13b9f8a6016e243e63b6e8ee1178d6a717850b5d61035473ffffffffffffffffffffffffffffffffffffffff163373ffffffffffffffffffffffffffffffffffffffff1614610624576040517f08c379a000000000000000000000000000000000000000000000000000000000815260206004820152600e60248201527f4e4f545f415554484f52495a45440000000000000000000000000000000000006044820152606401610565565b61062e8282610ddb565b5050565b600061065c7fb53127684a568b3173ae13b9f8a6016e243e63b6e8ee1178d6a717850b5d61035490565b905073ffffffffffffffffffffffffffffffffffffffff81166106b55773ffffffffffffffffffffffffffffffffffffffff7fb53127684a568b3173ae13b9f8a6016e243e63b6e8ee1178d6a717850b5d6103556106d7565b3373ffffffffffffffffffffffffffffffffffffffff8216146106d757600080fd5b60045460ff166107ba5760005b835181101561072a576107188482815181106107025761070261182e565b6020026020010151670de0b6b3a7640000610ddb565b806107228161188c565b9150506106e4565b5060005b825181101561078d5761077b83828151811061074c5761074c61182e565b60200260200101516000015184838151811061076a5761076a61182e565b602002602001015160200151610e4a565b806107858161188c565b91505061072e565b50600480547fffffffffffffffffffffffffffffffffffffffffffffffffffffffffffffff001660011790555b5050505050565b6000805461081e906dffffffffffffffffffffffffffff7201000000000000000000000000000000000000820416907f00000000000000000000000000000000000000000000000000000000000000009064ffffffffff16610f46565b60005461084391906501000000000090046cffffffffffffffffffffffffff166118c5565b905090565b73ffffffffffffffffffffffffffffffffffffffff811660009081526001602090815260408083205460029092528220548291633b9aca00917f0000000000000000000000000000000000000000000000000000000000000000916dffffffffffffffffffffffffffff16906108d7906e010000000000000000000000000000900464ffffffffff16426118dd565b6108e191906118f4565b6108eb91906118f4565b6108f59190611931565b73ffffffffffffffffffffffffffffffffffffffff8416600090815260026020526040902054909150610938906dffffffffffffffffffffffffffff16826118c5565b9392505050565b336000908152600360205260409020546109b5576040517f08c379a000000000000000000000000000000000000000000000000000000000815260206004820152601360248201527f4e4f545f415554484f52495a45445f47414d45000000000000000000000000006044820152606401610565565b61062e8282610f92565b73ffffffffffffffffffffffffffffffffffffffff81166000908152600160205260408120548154610ad0916cffffffffffffffffffffffffff6e010000000000000000000000000000820416916dffffffffffffffffffffffffffff91821691610a6c9172010000000000000000000000000000000000008104909116907f00000000000000000000000000000000000000000000000000000000000000009064ffffffffff16610f46565b600054610a9191906501000000000090046cffffffffffffffffffffffffff166118c5565b73ffffffffffffffffffffffffffffffffffffffff8616600090815260016020819052604090912001546dffffffffffffffffffffffffffff1661107f565b92915050565b33600090815260036020526040902054610b4c576040517f08c379a000000000000000000000000000000000000000000000000000000000815260206004820152601360248201527f4e4f545f415554484f52495a45445f47414d45000000000000000000000000006044820152606401610565565b610b568382610f92565b6104ff8282610e4a565b33600090815260036020526040902054610bd6576040517f08c379a000000000000000000000000000000000000000000000000000000000815260206004820152601360248201527f4e4f545f415554484f52495a45445f47414d45000000000000000000000000006044820152606401610565565b61062e8282610e4a565b336000818152600160205260408120546dffffffffffffffffffffffffffff1690610c096110cd565b73ffffffffffffffffffffffffffffffffffffffff8516600090815260016020819052604082208054910154929450909250610c7b916e0100000000000000000000000000009091046cffffffffffffffffffffffffff1690859085906dffffffffffffffffffffffffffff1661107f565b73ffffffffffffffffffffffffffffffffffffffff8516600090815260016020526040902080547fffffffffff00000000000000000000000000ffffffffffffffffffffffffffff166e0100000000000000000000000000006cffffffffffffffffffffffffff861602179055905080156107ba5773ffffffffffffffffffffffffffffffffffffffff8481166000908152600160208190526040918290200180547fffffffffffffffffffffffffffffffffffff0000000000000000000000000000169055517f21670f220000000000000000000000000000000000000000000000000000000081528682166004820152602481018390527f0000000000000000000000000000000000000000000000000000000000000000909116906321670f2290604401600060405180830381600087803b158015610dbc57600080fd5b505af1158015610dd0573d6000803e3d6000fd5b505050505050505050565b73ffffffffffffffffffffffffffffffffffffffff821660008181526003602052604090819020839055517f50b08f8489c009db3c1b3f160cc0dae1c0c6706774750c001e4c083f9483d5f390610e3e9084904290918252602082015260400190565b60405180910390a25050565b80610e53575050565b600080610e5f846111cb565b600080546dffffffffffffffffffffffffffff878501811672010000000000000000000000000000000000000271ffffffffffffffffffffffffffffffffffff90921691909117825573ffffffffffffffffffffffffffffffffffffffff88168083526001602052604080842080548a87019094167fffffffffffffffffffffffffffffffffffff000000000000000000000000000090941693909317909255905193955091935090917fddf252ad1be2c89b69c2b068fc378daa952ba7f163c4a11628f55a4df523b3ef90610f389087815260200190565b60405180910390a350505050565b600083610f5557506000610938565b8369d3c21bcecceda100000084610f6c85426118dd565b610f7691906118f4565b610f8091906118f4565b610f8a9190611931565b949350505050565b80610f9b575050565b600080610fa7846111cb565b600080546dffffffffffffffffffffffffffff878503811672010000000000000000000000000000000000000271ffffffffffffffffffffffffffffffffffff90921691909117825573ffffffffffffffffffffffffffffffffffffffff88168083526001602052604080842080548a87039094167fffffffffffffffffffffffffffffffffffff0000000000000000000000000000909416939093179092559051939550919350917fddf252ad1be2c89b69c2b068fc378daa952ba7f163c4a11628f55a4df523b3ef90610f389087815260200190565b600069d3c21bcecceda100000064e8d4a5100061109c87866118dd565b6110a690876118f4565b6110b091906118f4565b6110ba9190611931565b6110c490836118c5565b95945050505050565b600080546dffffffffffffffffffffffffffff72010000000000000000000000000000000000008204169190819061112f9084907f00000000000000000000000000000000000000000000000000000000000000009064ffffffffff16610f46565b6000549091506111589082906501000000000090046cffffffffffffffffffffffffff166118c5565b600080547fffffffffffffffffffffffffffff00000000000000000000000000000000000016650100000000006cffffffffffffffffffffffffff8416027fffffffffffffffffffffffffffffffffffffffffffffffffffffff000000000016174264ffffffffff161790559293915050565b6000806000806111d96110cd565b9150915060006111e986836111f6565b9296929550919350505050565b73ffffffffffffffffffffffffffffffffffffffff8216600090815260016020819052604090912080549101546dffffffffffffffffffffffffffff80831692611267926e0100000000000000000000000000009091046cffffffffffffffffffffffffff1691849186911661107f565b73ffffffffffffffffffffffffffffffffffffffff8416600090815260016020818152604080842092830180547fffffffffffffffffffffffffffffffffffff0000000000000000000000000000166dffffffffffffffffffffffffffff969096169590951790945581547fffffffffff00000000000000000000000000ffffffffffffffffffffffffffff166e0100000000000000000000000000006cffffffffffffffffffffffffff881681029190911790925560029052918120549091633b9aca00917f000000000000000000000000000000000000000000000000000000000000000091859161136491900464ffffffffff16426118dd565b61136e91906118f4565b61137891906118f4565b6113829190611931565b73ffffffffffffffffffffffffffffffffffffffff85166000908152600260205260408120805464ffffffffff42166e010000000000000000000000000000027fffffffffffffffffffffffffff0000000000ffffffffffffffffffffffffffff82168117835593945084939192916114119185916dffffffffffffffffffffffffffff90811691161761196c565b92506101000a8154816dffffffffffffffffffffffffffff02191690836dffffffffffffffffffffffffffff1602179055505092915050565b73ffffffffffffffffffffffffffffffffffffffff8116811461146c57600080fd5b50565b60006020828403121561148157600080fd5b81356109388161144a565b600060208083528351808285015260005b818110156114b95785810183015185820160400152820161149d565b818111156114cb576000604083870101525b50601f017fffffffffffffffffffffffffffffffffffffffffffffffffffffffffffffffe016929092016040019392505050565b6000806040838503121561151257600080fd5b823561151d8161144a565b946020939093013593505050565b7f4e487b7100000000000000000000000000000000000000000000000000000000600052604160045260246000fd5b6040805190810167ffffffffffffffff8111828210171561157d5761157d61152b565b60405290565b604051601f82017fffffffffffffffffffffffffffffffffffffffffffffffffffffffffffffffe016810167ffffffffffffffff811182821017156115ca576115ca61152b565b604052919050565b600067ffffffffffffffff8211156115ec576115ec61152b565b5060051b60200190565b600082601f83011261160757600080fd5b8135602061161c611617836115d2565b611583565b82815260069290921b8401810191818101908684111561163b57600080fd5b8286015b8481101561168357604081890312156116585760008081fd5b61166061155a565b813561166b8161144a565b8152818501358582015283529183019160400161163f565b509695505050505050565b60008060008084860360a08112156116a557600080fd5b85356116b08161144a565b9450602060407fffffffffffffffffffffffffffffffffffffffffffffffffffffffffffffffe0830112156116e457600080fd5b6116ec61155a565b87820135815260408801358282015294506060870135915067ffffffffffffffff8083111561171a57600080fd5b828801925088601f84011261172e57600080fd5b823561173c611617826115d2565b81815260059190911b8401830190838101908b83111561175b57600080fd5b948401945b828610156117825785356117738161144a565b82529484019490840190611760565b96505050608088013592508083111561179a57600080fd5b50506117a8878288016115f6565b91505092959194509250565b6000806000606084860312156117c957600080fd5b83356117d48161144a565b925060208401356117e48161144a565b929592945050506040919091013590565b6000806040838503121561180857600080fd5b82356118138161144a565b915060208301356118238161144a565b809150509250929050565b7f4e487b7100000000000000000000000000000000000000000000000000000000600052603260045260246000fd5b7f4e487b7100000000000000000000000000000000000000000000000000000000600052601160045260246000fd5b60007fffffffffffffffffffffffffffffffffffffffffffffffffffffffffffffffff8214156118be576118be61185d565b5060010190565b600082198211156118d8576118d861185d565b500190565b6000828210156118ef576118ef61185d565b500390565b6000817fffffffffffffffffffffffffffffffffffffffffffffffffffffffffffffffff048311821515161561192c5761192c61185d565b500290565b600082611967577f4e487b7100000000000000000000000000000000000000000000000000000000600052601260045260246000fd5b500490565b60006dffffffffffffffffffffffffffff8083168185168083038211156119955761199561185d565b0194935050505056fea264697066735822122073197818127b30a733dda4f9e54c21041b1c9e080612d83caa3ad9cbe100c82a64736f6c63430008090033b53127684a568b3173ae13b9f8a6016e243e63b6e8ee1178d6a717850b5d6103",
  "devdoc": {
    "kind": "dev",
    "methods": {
      "totalSupply()": {
        "details": "Returns the amount of tokens in existence."
      }
    },
    "version": 1
  },
  "userdoc": {
    "kind": "user",
    "methods": {
      "claimFixedRewards(address)": {
        "notice": "claim the rewards earned so far using a fixed rate per point"
      },
      "claimSharedPoolRewards(address)": {
        "notice": "claim the rewards earned so far in the shared pool"
      },
      "earnedFromFixedRate(address)": {
        "notice": "The amount of reward an account has accrued so far. Does not include already withdrawn rewards."
      },
      "earnedFromPoolRate(address)": {
        "notice": "The amount of reward an account has accrued so far. Does not include already withdrawn rewards."
      },
      "getTotalRewardPerPointWithPrecision24()": {
        "notice": "The amount of reward each point has earned so far"
      }
    },
    "version": 1
  },
  "storageLayout": {
    "storage": [
      {
        "astId": 15084,
        "contract": "src/conquest_token/RewardsGenerator.sol:RewardsGenerator",
        "label": "_global",
        "offset": 0,
        "slot": "0",
        "type": "t_struct(GlobalState)15081_storage"
      },
      {
        "astId": 15096,
        "contract": "src/conquest_token/RewardsGenerator.sol:RewardsGenerator",
        "label": "_sharedRateRewardPerAccount",
        "offset": 0,
        "slot": "1",
        "type": "t_mapping(t_address,t_struct(SharedRatePerAccount)15091_storage)"
      },
      {
        "astId": 15106,
        "contract": "src/conquest_token/RewardsGenerator.sol:RewardsGenerator",
        "label": "_fixedRateRewardPerAccount",
        "offset": 0,
        "slot": "2",
        "type": "t_mapping(t_address,t_struct(FixedRate)15101_storage)"
      },
      {
        "astId": 15110,
        "contract": "src/conquest_token/RewardsGenerator.sol:RewardsGenerator",
        "label": "_games",
        "offset": 0,
        "slot": "3",
        "type": "t_mapping(t_address,t_uint256)"
      },
      {
        "astId": 15125,
        "contract": "src/conquest_token/RewardsGenerator.sol:RewardsGenerator",
        "label": "_init",
        "offset": 0,
        "slot": "4",
        "type": "t_bool"
      }
    ],
    "types": {
      "t_address": {
        "encoding": "inplace",
        "label": "address",
        "numberOfBytes": "20"
      },
      "t_bool": {
        "encoding": "inplace",
        "label": "bool",
        "numberOfBytes": "1"
      },
      "t_mapping(t_address,t_struct(FixedRate)15101_storage)": {
        "encoding": "mapping",
        "key": "t_address",
        "label": "mapping(address => struct RewardsGenerator.FixedRate)",
        "numberOfBytes": "32",
        "value": "t_struct(FixedRate)15101_storage"
      },
      "t_mapping(t_address,t_struct(SharedRatePerAccount)15091_storage)": {
        "encoding": "mapping",
        "key": "t_address",
        "label": "mapping(address => struct RewardsGenerator.SharedRatePerAccount)",
        "numberOfBytes": "32",
        "value": "t_struct(SharedRatePerAccount)15091_storage"
      },
      "t_mapping(t_address,t_uint256)": {
        "encoding": "mapping",
        "key": "t_address",
        "label": "mapping(address => uint256)",
        "numberOfBytes": "32",
        "value": "t_uint256"
      },
      "t_struct(FixedRate)15101_storage": {
        "encoding": "inplace",
        "label": "struct RewardsGenerator.FixedRate",
        "members": [
          {
            "astId": 15098,
            "contract": "src/conquest_token/RewardsGenerator.sol:RewardsGenerator",
            "label": "toWithdraw",
            "offset": 0,
            "slot": "0",
            "type": "t_uint112"
          },
          {
            "astId": 15100,
            "contract": "src/conquest_token/RewardsGenerator.sol:RewardsGenerator",
            "label": "lastTime",
            "offset": 14,
            "slot": "0",
            "type": "t_uint40"
          }
        ],
        "numberOfBytes": "32"
      },
      "t_struct(GlobalState)15081_storage": {
        "encoding": "inplace",
        "label": "struct RewardsGenerator.GlobalState",
        "members": [
          {
            "astId": 15076,
            "contract": "src/conquest_token/RewardsGenerator.sol:RewardsGenerator",
            "label": "lastUpdateTime",
            "offset": 0,
            "slot": "0",
            "type": "t_uint40"
          },
          {
            "astId": 15078,
            "contract": "src/conquest_token/RewardsGenerator.sol:RewardsGenerator",
            "label": "totalRewardPerPointAtLastUpdate",
            "offset": 5,
            "slot": "0",
            "type": "t_uint104"
          },
          {
            "astId": 15080,
            "contract": "src/conquest_token/RewardsGenerator.sol:RewardsGenerator",
            "label": "totalPoints",
            "offset": 18,
            "slot": "0",
            "type": "t_uint112"
          }
        ],
        "numberOfBytes": "32"
      },
      "t_struct(SharedRatePerAccount)15091_storage": {
        "encoding": "inplace",
        "label": "struct RewardsGenerator.SharedRatePerAccount",
        "members": [
          {
            "astId": 15086,
            "contract": "src/conquest_token/RewardsGenerator.sol:RewardsGenerator",
            "label": "points",
            "offset": 0,
            "slot": "0",
            "type": "t_uint112"
          },
          {
            "astId": 15088,
            "contract": "src/conquest_token/RewardsGenerator.sol:RewardsGenerator",
            "label": "totalRewardPerPointAccounted",
            "offset": 14,
            "slot": "0",
            "type": "t_uint104"
          },
          {
            "astId": 15090,
            "contract": "src/conquest_token/RewardsGenerator.sol:RewardsGenerator",
            "label": "rewardsToWithdraw",
            "offset": 0,
            "slot": "1",
            "type": "t_uint112"
          }
        ],
        "numberOfBytes": "64"
      },
      "t_uint104": {
        "encoding": "inplace",
        "label": "uint104",
        "numberOfBytes": "13"
      },
      "t_uint112": {
        "encoding": "inplace",
        "label": "uint112",
        "numberOfBytes": "14"
      },
      "t_uint256": {
        "encoding": "inplace",
        "label": "uint256",
        "numberOfBytes": "32"
      },
      "t_uint40": {
        "encoding": "inplace",
        "label": "uint40",
        "numberOfBytes": "5"
      }
    }
  }
}